{
  "contractName": "ERC721",
  "abi": [
    {
      "inputs": [],
      "stateMutability": "nonpayable",
      "type": "constructor"
    },
    {
      "anonymous": false,
      "inputs": [
        {
          "indexed": true,
          "internalType": "address",
          "name": "_owner",
          "type": "address"
        },
        {
          "indexed": true,
          "internalType": "address",
          "name": "_approved",
          "type": "address"
        },
        {
          "indexed": true,
          "internalType": "uint256",
          "name": "_tokenId",
          "type": "uint256"
        }
      ],
      "name": "Approval",
      "type": "event"
    },
    {
      "anonymous": false,
      "inputs": [
        {
          "indexed": true,
          "internalType": "address",
          "name": "_from",
          "type": "address"
        },
        {
          "indexed": true,
          "internalType": "address",
          "name": "_to",
          "type": "address"
        },
        {
          "indexed": true,
          "internalType": "uint256",
          "name": "_tokenId",
          "type": "uint256"
        }
      ],
      "name": "Transfer",
      "type": "event"
    },
    {
      "inputs": [
        {
          "internalType": "bytes4",
          "name": "interfaceID",
          "type": "bytes4"
        }
      ],
      "name": "supportsInterface",
      "outputs": [
        {
          "internalType": "bool",
          "name": "",
          "type": "bool"
        }
      ],
      "stateMutability": "view",
      "type": "function"
    },
    {
      "inputs": [
        {
          "internalType": "address",
          "name": "_from",
          "type": "address"
        },
        {
          "internalType": "address",
          "name": "_to",
          "type": "address"
        },
        {
          "internalType": "uint256",
          "name": "_tokenId",
          "type": "uint256"
        }
      ],
      "name": "transferFrom",
      "outputs": [],
      "stateMutability": "nonpayable",
      "type": "function"
    },
    {
      "inputs": [
        {
          "internalType": "address",
          "name": "_owner",
          "type": "address"
        }
      ],
      "name": "balanceOf",
      "outputs": [
        {
          "internalType": "uint256",
          "name": "",
          "type": "uint256"
        }
      ],
      "stateMutability": "view",
      "type": "function"
    },
    {
      "inputs": [
        {
          "internalType": "uint256",
          "name": "_tokenId",
          "type": "uint256"
        }
      ],
      "name": "ownerOf",
      "outputs": [
        {
          "internalType": "address",
          "name": "",
          "type": "address"
        }
      ],
      "stateMutability": "view",
      "type": "function"
    }
  ],
  "bytecode": "0x608060405234801561001057600080fd5b506100407f01ffc9a7a5cef8baa21ed3c5c0d7e23accb804b619e9333b597f47a0d84076e26100b860201b60201c565b6100b37f22c82707ba960a14c7592ffb6b8cfaa073fed0048a84cc7fa41f6b5bd8e7f2e47f3a6eb71757dfc6e784c1459d26270140c2c147d95ca985c80026fc5301c3eca17f8a7e378434598edc36d108689a030cbc9d7d465de4f74c71bae1028eed6a881b18186100b860201b60201c565b610230565b63ffffffff60e01b817bffffffffffffffffffffffffffffffffffffffffffffffffffffffff19161415610121576040517f08c379a000000000000000000000000000000000000000000000000000000000815260040161011890610210565b60405180910390fd5b6001600080837bffffffffffffffffffffffffffffffffffffffffffffffffffffffff19167bffffffffffffffffffffffffffffffffffffffffffffffffffffffff1916815260200190815260200160002060006101000a81548160ff02191690831515021790555050565b600082825260208201905092915050565b7f455243313635202d20496e76616c696420696e7465726661636520726571756560008201527f7374210000000000000000000000000000000000000000000000000000000000602082015250565b60006101fa60238361018d565b91506102058261019e565b604082019050919050565b60006020820190508181036000830152610229816101ed565b9050919050565b610d848061023f6000396000f3fe608060405234801561001057600080fd5b506004361061004c5760003560e01c806301ffc9a71461005157806323b872dd146100815780636352211e1461009d57806370a08231146100cd575b600080fd5b61006b6004803603810190610066919061077a565b6100fd565b60405161007891906107c2565b60405180910390f35b61009b60048036038101906100969190610871565b610164565b005b6100b760048036038101906100b291906108c4565b610187565b6040516100c49190610900565b60405180910390f35b6100e760048036038101906100e2919061091b565b610239565b6040516100f49190610957565b60405180910390f35b6000806000837bffffffffffffffffffffffffffffffffffffffffffffffffffffffff19167bffffffffffffffffffffffffffffffffffffffffffffffffffffffff1916815260200190815260200160002060009054906101000a900460ff169050919050565b61016e33826102f8565b61017757600080fd5b610182838383610387565b505050565b6000806001600084815260200190815260200160002060009054906101000a900473ffffffffffffffffffffffffffffffffffffffff169050600073ffffffffffffffffffffffffffffffffffffffff168173ffffffffffffffffffffffffffffffffffffffff161415610230576040517f08c379a0000000000000000000000000000000000000000000000000000000008152600401610227906109cf565b60405180910390fd5b80915050919050565b60008073ffffffffffffffffffffffffffffffffffffffff168273ffffffffffffffffffffffffffffffffffffffff1614156102aa576040517f08c379a00000000000000000000000000000000000000000000000000000000081526004016102a190610a3b565b60405180910390fd5b6102f1600260008473ffffffffffffffffffffffffffffffffffffffff1673ffffffffffffffffffffffffffffffffffffffff1681526020019081526020016000206105ad565b9050919050565b6000610303826105bb565b610342576040517f08c379a000000000000000000000000000000000000000000000000000000000815260040161033990610aa7565b60405180910390fd5b600061034d83610187565b90508073ffffffffffffffffffffffffffffffffffffffff168473ffffffffffffffffffffffffffffffffffffffff161491505092915050565b600073ffffffffffffffffffffffffffffffffffffffff168273ffffffffffffffffffffffffffffffffffffffff1614156103f7576040517f08c379a00000000000000000000000000000000000000000000000000000000081526004016103ee90610b39565b60405180910390fd5b8273ffffffffffffffffffffffffffffffffffffffff1661041782610187565b73ffffffffffffffffffffffffffffffffffffffff161461046d576040517f08c379a000000000000000000000000000000000000000000000000000000000815260040161046490610bcb565b60405180910390fd5b6104b4600260008573ffffffffffffffffffffffffffffffffffffffff1673ffffffffffffffffffffffffffffffffffffffff16815260200190815260200160002061062d565b6104fb600260008473ffffffffffffffffffffffffffffffffffffffff1673ffffffffffffffffffffffffffffffffffffffff168152602001908152602001600020610650565b816001600083815260200190815260200160002060006101000a81548173ffffffffffffffffffffffffffffffffffffffff021916908373ffffffffffffffffffffffffffffffffffffffff160217905550808273ffffffffffffffffffffffffffffffffffffffff168473ffffffffffffffffffffffffffffffffffffffff167fddf252ad1be2c89b69c2b068fc378daa952ba7f163c4a11628f55a4df523b3ef60405160405180910390a4505050565b600081600001549050919050565b6000806001600084815260200190815260200160002060009054906101000a900473ffffffffffffffffffffffffffffffffffffffff169050600073ffffffffffffffffffffffffffffffffffffffff168173ffffffffffffffffffffffffffffffffffffffff161415915050919050565b6106456001826000015461066f90919063ffffffff16565b816000018190555050565b60018160000160008282546106659190610c1a565b9250508190555050565b60006106b183836040518060400160405280601e81526020017f536166654d6174683a207375627472616374696f6e206f766572666c6f7700008152506106b9565b905092915050565b6000838311158290610701576040517f08c379a00000000000000000000000000000000000000000000000000000000081526004016106f89190610cf8565b60405180910390fd5b50600083856107109190610d1a565b9050809150509392505050565b600080fd5b60007fffffffff0000000000000000000000000000000000000000000000000000000082169050919050565b61075781610722565b811461076257600080fd5b50565b6000813590506107748161074e565b92915050565b6000602082840312156107905761078f61071d565b5b600061079e84828501610765565b91505092915050565b60008115159050919050565b6107bc816107a7565b82525050565b60006020820190506107d760008301846107b3565b92915050565b600073ffffffffffffffffffffffffffffffffffffffff82169050919050565b6000610808826107dd565b9050919050565b610818816107fd565b811461082357600080fd5b50565b6000813590506108358161080f565b92915050565b6000819050919050565b61084e8161083b565b811461085957600080fd5b50565b60008135905061086b81610845565b92915050565b60008060006060848603121561088a5761088961071d565b5b600061089886828701610826565b93505060206108a986828701610826565b92505060406108ba8682870161085c565b9150509250925092565b6000602082840312156108da576108d961071d565b5b60006108e88482850161085c565b91505092915050565b6108fa816107fd565b82525050565b600060208201905061091560008301846108f1565b92915050565b6000602082840312156109315761093061071d565b5b600061093f84828501610826565b91505092915050565b6109518161083b565b82525050565b600060208201905061096c6000830184610948565b92915050565b600082825260208201905092915050565b7f4572726f72202d205468697320746f6b656e20697320696e76616c6964000000600082015250565b60006109b9601d83610972565b91506109c482610983565b602082019050919050565b600060208201905081810360008301526109e8816109ac565b9050919050565b7f4572726f72202d20496e76616c69642061646472657373210000000000000000600082015250565b6000610a25601883610972565b9150610a30826109ef565b602082019050919050565b60006020820190508181036000830152610a5481610a18565b9050919050565b7f546f6b656e20646f6573206e6f74206578697374210000000000000000000000600082015250565b6000610a91601583610972565b9150610a9c82610a5b565b602082019050919050565b60006020820190508181036000830152610ac081610a84565b9050919050565b7f4572726f72202d20455243373231207472616e7366657220746f20746865207a60008201527f65726f2061646472657373000000000000000000000000000000000000000000602082015250565b6000610b23602b83610972565b9150610b2e82610ac7565b604082019050919050565b60006020820190508181036000830152610b5281610b16565b9050919050565b7f4572726f72202d20417474656d707420746f207472616e73666572206120746f60008201527f6b656e20746865206164647265737320646f6573206e6f74206f776e21000000602082015250565b6000610bb5603d83610972565b9150610bc082610b59565b604082019050919050565b60006020820190508181036000830152610be481610ba8565b9050919050565b7f4e487b7100000000000000000000000000000000000000000000000000000000600052601160045260246000fd5b6000610c258261083b565b9150610c308361083b565b9250827fffffffffffffffffffffffffffffffffffffffffffffffffffffffffffffffff03821115610c6557610c64610beb565b5b828201905092915050565b600081519050919050565b60005b83811015610c99578082015181840152602081019050610c7e565b83811115610ca8576000848401525b50505050565b6000601f19601f8301169050919050565b6000610cca82610c70565b610cd48185610972565b9350610ce4818560208601610c7b565b610ced81610cae565b840191505092915050565b60006020820190508181036000830152610d128184610cbf565b905092915050565b6000610d258261083b565b9150610d308361083b565b925082821015610d4357610d42610beb565b5b82820390509291505056fea26469706673582212202158620cf3a44e321ee24fc3e1a70dfa862d16adb127effd69fdf4891871823064736f6c63430008090033",
  "immutableReferences": {},
  "source": "//SPDX-License-Identifier: MIT\npragma solidity ^0.8.0;\n\nimport './ERC165.sol';\nimport './interfaces/IERC721.sol';\nimport './libraries/Counters.sol';\n /*\n    Building out the mint function:\n        1. NFT to point to an address\n        2. Keep track of the Token ids\n        3. Keep track of token owner address to token ids\n        4. Keep track of how many tokens an owner address has\n        5. emit transfer logs - contract address, where its being \n            minted to, the token id\n\n    1. write a function mint that takes two arguments\n    2. add internal visibility to the signature\n    3. set the tokenOwner of the tokenID to the address\n    4. increase the owner token count by 1 each time the function is called\n*/\n\ncontract ERC721 is ERC165, IERC721 {\n    using SafeMath for uint256;\n    using Counters for Counters.Counter;\n    // mapping in solidity creates a hash table of key pair values\n    // mapping from tokenid to the owner\n    mapping(uint256 => address) private _tokenOwner;\n\n    // mapping from owner to number of owned tokens\n    mapping(address => Counters.Counter) private _ownedTokensCount;\n    //mapping(uint256 => bool) private _isMinted; //made this as an alternative to the _exists function from clarians solution\n    mapping(uint256 => address) private _tokenApprovals;\n\n    // register the interface for the erc721 so that it includes the following functions: balance of,\n    // ownerOf, transferFrom\n    // *note: by register the interface: write the constructors with\n    // the according byte conversions\n    constructor() {\n        _registerInterface(bytes4(keccak256('balanceOf(bytes4)')^\n        keccak256('ownerOf(bytes4)')^\n        keccak256('transferFrom(bytes4)')));\n    } \n\n    function _exists(uint256 tokenId) internal view returns(bool) {\n        // setting the address of nft owner to check the mapping\n        // of the address from tokenOwner at the tokenId\n        address owner = _tokenOwner[tokenId];\n        // return trueness that the address is not zero\n        return owner != address(0);\n    }\n\n    // this function is not safe\n    // any type of mathematics can be held to dubious standards\n    // in SOLIDITY (ADDITION OVERFLOW)\n    //UPDATE: NOW IT IS SAFE because we implemented the counters\n    function _mint(address to, uint256 tokenId) internal virtual {\n        // requires that the address isn't zero\n        require(to != address(0), 'Mint address is not an address!');\n        // requires that the token does not already exist\n        // require(!_isMinted[tokenId], 'This token has already been minted!'); my initial solution, since corrected\n        require(!_exists(tokenId),'ERC721: token already minted');\n        // we are adding a new address with a token id for minting\n        _tokenOwner[tokenId] = to;\n        // increasing the count of an address' owned tokens\n        _ownedTokensCount[to].increment();\n        //_isMinted[tokenId] = true; part of my initial solution, since corrected\n        \n\n        // a log of the mint that has been performed\n        emit Transfer(address(0), to, tokenId);\n    }\n\n    // 1. require that the person approving is the owner\n    // 2. we are approving an address to a token (tokenId)\n    // 3. require that we cant approve sending tokens of the owner to the owner(current caller)\n    // 4. update the map of the approval addresses\n\n    /* COME BACK TO THIS AFTER PROJ COMPLETION (APPROVAL FUNCTIONALITY lect. 144)\n    function approve(address _to, uint256 tokenId) public {\n        address owner = ownerOf(tokenId);\n        require(_to != owner, 'Error - Approval to current owner');\n        require(msg.sender == owner, 'Current caller is not the owner of the token!');\n        _tokenApprovals[tokenId] = _to;\n        emit Approval(owner, _to, tokenId);\n    }\n    */\n\n    function isApprovedOrOwner(address spender, uint256 tokenId) internal view returns (bool) {\n        require(_exists(tokenId), 'Token does not exist!');\n        address owner = ownerOf(tokenId);\n        return(spender == owner);\n    }\n    \n\n     /// @notice Transfer ownership of an NFT -- THE CALLER IS RESPONSIBLE\n    ///  TO CONFIRM THAT `_to` IS CAPABLE OF RECEIVING NFTS OR ELSE\n    ///  THEY MAY BE PERMANENTLY LOST\n    /// @dev Throws unless `msg.sender` is the current owner, an authorized\n    ///  operator, or the approved address for this NFT. Throws if `_from` is\n    ///  not the current owner. Throws if `_to` is the zero address. Throws if\n    ///  `_tokenId` is not a valid NFT.\n    /// @param _from The current owner of the NFT\n    /// @param _to The new owner\n    /// @param _tokenId The NFT to transfer\n\n    // this is not safe! safemath. UPDATE: NOW IT IS SAFE because we implemented the counters\n    function _transferFrom(address _from, address _to, uint256 _tokenId) internal {\n        require(_to != address(0), 'Error - ERC721 transfer to the zero address');\n        require(ownerOf(_tokenId) == _from, 'Error - Attempt to transfer a token the address does not own!');\n\n        _ownedTokensCount[_from].decrement();\n        _ownedTokensCount[_to].increment();\n\n        _tokenOwner[_tokenId] = _to;\n        \n        emit Transfer(_from, _to, _tokenId);\n    }\n\n    function transferFrom(address _from, address _to, uint256 _tokenId) external override {\n        require(isApprovedOrOwner(msg.sender, _tokenId));\n        _transferFrom(_from, _to, _tokenId);\n    }\n    /// @notice Count all NFTs assigned to an owner\n    /// @dev NFTs assigned to the zero address are considered invalid, and this\n    ///  function throws for queries about the zero address.\n    /// @param _owner An address for whom to query the balance\n    /// @return The number of NFTs owned by `_owner`, possibly zero\n    function balanceOf(address _owner) public override view returns(uint256) {\n        require(_owner != address(0), 'Error - Invalid address!');\n        return _ownedTokensCount[_owner].current();\n    }\n\n    /// @notice Find the owner of an NFT\n    /// @dev NFTs assigned to zero address are considered invalid, and queries\n    ///  about them do throw.\n    /// @param _tokenId The identifier for an NFT\n    /// @return The address of the owner of the NFT\n    function ownerOf(uint _tokenId) public override view returns(address) {\n        address owner = _tokenOwner[_tokenId];\n        require(owner != address(0), 'Error - This token is invalid');\n        return owner;\n    }\n\n}\n",
  "sourcePath": "/Users/joshua.stewart/Desktop/js.code/nft-marketplace-starter-kit/src/contracts/ERC721.sol",
  "compiler": {
    "name": "solc",
    "version": "0.8.9+commit.e5eed63a.Emscripten.clang"
  },
  "schemaVersion": "3.4.3",
  "updatedAt": "2021-10-31T23:24:05.738Z",
  "devdoc": {
    "kind": "dev",
    "methods": {
      "balanceOf(address)": {
        "details": "NFTs assigned to the zero address are considered invalid, and this  function throws for queries about the zero address.",
        "params": {
          "_owner": "An address for whom to query the balance"
        },
        "returns": {
          "_0": "The number of NFTs owned by `_owner`, possibly zero"
        }
      },
      "ownerOf(uint256)": {
        "details": "NFTs assigned to zero address are considered invalid, and queries  about them do throw.",
        "params": {
          "_tokenId": "The identifier for an NFT"
        },
        "returns": {
          "_0": "The address of the owner of the NFT"
        }
      },
      "supportsInterface(bytes4)": {
        "details": "Interface identification is specified in ERC-165. This function  uses less than 30,000 gas.",
        "params": {
          "interfaceID": "The interface identifier, as specified in ERC-165"
        },
        "returns": {
          "_0": "`true` if the contract implements `interfaceID` and  `interfaceID` is not 0xffffffff, `false` otherwise"
        }
      }
    },
    "version": 1
  },
  "userdoc": {
    "kind": "user",
    "methods": {
      "balanceOf(address)": {
        "notice": "Count all NFTs assigned to an owner"
      },
      "ownerOf(uint256)": {
        "notice": "Find the owner of an NFT"
      },
      "supportsInterface(bytes4)": {
        "notice": "Query if a contract implements an interface"
      }
    },
    "version": 1
  }
}