{
  "contractName": "ERC721Enumerable",
  "abi": [
    {
      "anonymous": false,
      "inputs": [
        {
          "indexed": true,
          "internalType": "address",
          "name": "from",
          "type": "address"
        },
        {
          "indexed": true,
          "internalType": "address",
          "name": "to",
          "type": "address"
        },
        {
          "indexed": true,
          "internalType": "uint256",
          "name": "tokenId",
          "type": "uint256"
        }
      ],
      "name": "Transfer",
      "type": "event"
    },
    {
      "inputs": [
        {
          "internalType": "address",
          "name": "_owner",
          "type": "address"
        }
      ],
      "name": "balanceOf",
      "outputs": [
        {
          "internalType": "uint256",
          "name": "",
          "type": "uint256"
        }
      ],
      "stateMutability": "view",
      "type": "function"
    },
    {
      "inputs": [
        {
          "internalType": "uint256",
          "name": "_tokenId",
          "type": "uint256"
        }
      ],
      "name": "ownerOf",
      "outputs": [
        {
          "internalType": "address",
          "name": "",
          "type": "address"
        }
      ],
      "stateMutability": "view",
      "type": "function"
    },
    {
      "inputs": [],
      "name": "totalSupply",
      "outputs": [
        {
          "internalType": "uint256",
          "name": "",
          "type": "uint256"
        }
      ],
      "stateMutability": "view",
      "type": "function"
    }
  ],
  "bytecode": "0x608060405234801561001057600080fd5b506104a0806100206000396000f3fe608060405234801561001057600080fd5b50600436106100415760003560e01c806318160ddd146100465780636352211e1461006457806370a0823114610094575b600080fd5b61004e6100c4565b60405161005b9190610253565b60405180910390f35b61007e6004803603810190610079919061029f565b6100d1565b60405161008b919061030d565b60405180910390f35b6100ae60048036038101906100a99190610354565b610182565b6040516100bb9190610253565b60405180910390f35b6000600280549050905090565b60008060008084815260200190815260200160002060009054906101000a900473ffffffffffffffffffffffffffffffffffffffff169050600073ffffffffffffffffffffffffffffffffffffffff168173ffffffffffffffffffffffffffffffffffffffff161415610179576040517f08c379a0000000000000000000000000000000000000000000000000000000008152600401610170906103de565b60405180910390fd5b80915050919050565b60008073ffffffffffffffffffffffffffffffffffffffff168273ffffffffffffffffffffffffffffffffffffffff1614156101f3576040517f08c379a00000000000000000000000000000000000000000000000000000000081526004016101ea9061044a565b60405180910390fd5b600160008373ffffffffffffffffffffffffffffffffffffffff1673ffffffffffffffffffffffffffffffffffffffff168152602001908152602001600020549050919050565b6000819050919050565b61024d8161023a565b82525050565b60006020820190506102686000830184610244565b92915050565b600080fd5b61027c8161023a565b811461028757600080fd5b50565b60008135905061029981610273565b92915050565b6000602082840312156102b5576102b461026e565b5b60006102c38482850161028a565b91505092915050565b600073ffffffffffffffffffffffffffffffffffffffff82169050919050565b60006102f7826102cc565b9050919050565b610307816102ec565b82525050565b600060208201905061032260008301846102fe565b92915050565b610331816102ec565b811461033c57600080fd5b50565b60008135905061034e81610328565b92915050565b60006020828403121561036a5761036961026e565b5b60006103788482850161033f565b91505092915050565b600082825260208201905092915050565b7f4572726f72202d205468697320746f6b656e20697320696e76616c6964000000600082015250565b60006103c8601d83610381565b91506103d382610392565b602082019050919050565b600060208201905081810360008301526103f7816103bb565b9050919050565b7f4572726f72202d20496e76616c69642061646472657373210000000000000000600082015250565b6000610434601883610381565b915061043f826103fe565b602082019050919050565b6000602082019050818103600083015261046381610427565b905091905056fea2646970667358221220839bb1279330d505256eda23223c7d9df181a3c68fa293cf283aaf2d87f66fb864736f6c63430008090033",
  "immutableReferences": {},
  "source": "//SPDX-License-Identifier: MIT\npragma solidity ^0.8.0;\n\nimport './ERC721.sol';\n\ncontract ERC721Enumerable is ERC721 {\n\n    uint256[] private _allTokens;\n\n    //mapping from tokenId to position in _allTokens array\n    mapping(uint256 => uint256) private _allTokensIndex;\n\n    //mapping of owner to list of all owner token ids\n    mapping(address => uint256[]) private _ownedTokens;\n\n    //mapping from token ID to index of the owner tokens list\n    mapping(uint256 => uint256) private _ownedTokensIndex;\n\n    function _mint(address to, uint256 tokenId) internal override(ERC721) {\n        super._mint(to, tokenId);\n        //2 things!\n        //A. add tokens to the owner\n        _addTokensToAllTokenEnumeration(tokenId);\n        _addTokensToOwnerEnumeration(to, tokenId);\n    }\n    \n    //B. add tokens to our total supply - to all tokens\n    function _addTokensToAllTokenEnumeration(uint256 tokenId) private {\n        //set the position of the _allTokensIndex's\n        _allTokensIndex[tokenId] = _allTokens.length;\n        _allTokens.push(tokenId);\n\n    }\n\n    function _addTokensToOwnerEnumeration(address to, uint256 tokenId) private {\n        //A1 add address and token id to the _ownedTokens\n        _ownedTokens[to].push(tokenId);\n\n        //A2 ownedTokensIndex tokenId set to address of ownedTokens position\n        _ownedTokensIndex[tokenId] = _ownedTokens[to].length;\n\n        //A3 we want to execute the function with minting\n    }\n\n    // return the total supply of the _allTokens array\n    function totalSupply() public view returns(uint256) {\n        return _allTokens.length;\n    }\n\n/*\n    function _addTokensToOwnerStack(address to, uint256 tokenId) private {\n        uint256[] memory ownerStack;\n        ownerStack = \n    }\n    */\n}",
  "sourcePath": "/Users/joshua.stewart/Desktop/js.code/nft-marketplace-starter-kit/src/contracts/ERC721Enumerable.sol",
  "compiler": {
    "name": "solc",
    "version": "0.8.9+commit.e5eed63a.Emscripten.clang"
  },
  "schemaVersion": "3.4.3",
  "updatedAt": "2021-10-25T08:34:12.770Z",
  "devdoc": {
    "kind": "dev",
    "methods": {
      "balanceOf(address)": {
        "details": "NFTs assigned to the zero address are considered invalid, and this  function throws for queries about the zero address.",
        "params": {
          "_owner": "An address for whom to query the balance"
        },
        "returns": {
          "_0": "The number of NFTs owned by `_owner`, possibly zero"
        }
      },
      "ownerOf(uint256)": {
        "details": "NFTs assigned to zero address are considered invalid, and queries  about them do throw.",
        "params": {
          "_tokenId": "The identifier for an NFT"
        },
        "returns": {
          "_0": "The address of the owner of the NFT"
        }
      }
    },
    "version": 1
  },
  "userdoc": {
    "kind": "user",
    "methods": {
      "balanceOf(address)": {
        "notice": "Count all NFTs assigned to an owner"
      },
      "ownerOf(uint256)": {
        "notice": "Find the owner of an NFT"
      }
    },
    "version": 1
  }
}