{
  "contractName": "KryptoBird",
  "abi": [
    {
      "inputs": [],
      "stateMutability": "nonpayable",
      "type": "constructor"
    },
    {
      "anonymous": false,
      "inputs": [
        {
          "indexed": true,
          "internalType": "address",
          "name": "_owner",
          "type": "address"
        },
        {
          "indexed": true,
          "internalType": "address",
          "name": "_approved",
          "type": "address"
        },
        {
          "indexed": true,
          "internalType": "uint256",
          "name": "_tokenId",
          "type": "uint256"
        }
      ],
      "name": "Approval",
      "type": "event"
    },
    {
      "anonymous": false,
      "inputs": [
        {
          "indexed": true,
          "internalType": "address",
          "name": "_from",
          "type": "address"
        },
        {
          "indexed": true,
          "internalType": "address",
          "name": "_to",
          "type": "address"
        },
        {
          "indexed": true,
          "internalType": "uint256",
          "name": "_tokenId",
          "type": "uint256"
        }
      ],
      "name": "Transfer",
      "type": "event"
    },
    {
      "inputs": [
        {
          "internalType": "address",
          "name": "_owner",
          "type": "address"
        }
      ],
      "name": "balanceOf",
      "outputs": [
        {
          "internalType": "uint256",
          "name": "",
          "type": "uint256"
        }
      ],
      "stateMutability": "view",
      "type": "function",
      "constant": true
    },
    {
      "inputs": [
        {
          "internalType": "uint256",
          "name": "",
          "type": "uint256"
        }
      ],
      "name": "kryptoBirdz",
      "outputs": [
        {
          "internalType": "string",
          "name": "",
          "type": "string"
        }
      ],
      "stateMutability": "view",
      "type": "function",
      "constant": true
    },
    {
      "inputs": [],
      "name": "name",
      "outputs": [
        {
          "internalType": "string",
          "name": "",
          "type": "string"
        }
      ],
      "stateMutability": "view",
      "type": "function",
      "constant": true
    },
    {
      "inputs": [
        {
          "internalType": "uint256",
          "name": "_tokenId",
          "type": "uint256"
        }
      ],
      "name": "ownerOf",
      "outputs": [
        {
          "internalType": "address",
          "name": "",
          "type": "address"
        }
      ],
      "stateMutability": "view",
      "type": "function",
      "constant": true
    },
    {
      "inputs": [
        {
          "internalType": "bytes4",
          "name": "interfaceID",
          "type": "bytes4"
        }
      ],
      "name": "supportsInterface",
      "outputs": [
        {
          "internalType": "bool",
          "name": "",
          "type": "bool"
        }
      ],
      "stateMutability": "view",
      "type": "function",
      "constant": true
    },
    {
      "inputs": [],
      "name": "symbol",
      "outputs": [
        {
          "internalType": "string",
          "name": "",
          "type": "string"
        }
      ],
      "stateMutability": "view",
      "type": "function",
      "constant": true
    },
    {
      "inputs": [
        {
          "internalType": "uint256",
          "name": "index",
          "type": "uint256"
        }
      ],
      "name": "tokenByIndex",
      "outputs": [
        {
          "internalType": "uint256",
          "name": "",
          "type": "uint256"
        }
      ],
      "stateMutability": "view",
      "type": "function",
      "constant": true
    },
    {
      "inputs": [
        {
          "internalType": "address",
          "name": "owner",
          "type": "address"
        },
        {
          "internalType": "uint256",
          "name": "index",
          "type": "uint256"
        }
      ],
      "name": "tokenOfOwnerByIndex",
      "outputs": [
        {
          "internalType": "uint256",
          "name": "",
          "type": "uint256"
        }
      ],
      "stateMutability": "view",
      "type": "function",
      "constant": true
    },
    {
      "inputs": [],
      "name": "totalSupply",
      "outputs": [
        {
          "internalType": "uint256",
          "name": "",
          "type": "uint256"
        }
      ],
      "stateMutability": "view",
      "type": "function",
      "constant": true
    },
    {
      "inputs": [
        {
          "internalType": "address",
          "name": "_from",
          "type": "address"
        },
        {
          "internalType": "address",
          "name": "_to",
          "type": "address"
        },
        {
          "internalType": "uint256",
          "name": "_tokenId",
          "type": "uint256"
        }
      ],
      "name": "transferFrom",
      "outputs": [],
      "stateMutability": "nonpayable",
      "type": "function"
    },
    {
      "inputs": [
        {
          "internalType": "string",
          "name": "_kryptoBird",
          "type": "string"
        }
      ],
      "name": "mint",
      "outputs": [],
      "stateMutability": "nonpayable",
      "type": "function"
    }
  ],
  "bytecode": "0x60806040523480156200001157600080fd5b506040518060400160405280600a81526020017f4b727970746f42697264000000000000000000000000000000000000000000008152506040518060400160405280600681526020017f4b424952445a00000000000000000000000000000000000000000000000000008152508181620000b17f01ffc9a7a5cef8baa21ed3c5c0d7e23accb804b619e9333b597f47a0d84076e26200022a60201b60201c565b8160019080519060200190620000c992919062000302565b508060029080519060200190620000e292919062000302565b50620001367f7feaf19471f34a12a7eaf32d5f3090aa2260ea8624dc8a138e74e0bf0f6230767f13b182f4c0e5b2efbac0efe6cf6d756c8b89f4b79c5707a043ed9ea740574ee9186200022a60201b60201c565b5050620001ad7f22c82707ba960a14c7592ffb6b8cfaa073fed0048a84cc7fa41f6b5bd8e7f2e47f3a6eb71757dfc6e784c1459d26270140c2c147d95ca985c80026fc5301c3eca17f8a7e378434598edc36d108689a030cbc9d7d465de4f74c71bae1028eed6a881b18186200022a60201b60201c565b620002227f22c82707ba960a14c7592ffb6b8cfaa073fed0048a84cc7fa41f6b5bd8e7f2e47f3a6eb71757dfc6e784c1459d26270140c2c147d95ca985c80026fc5301c3eca17f8a7e378434598edc36d108689a030cbc9d7d465de4f74c71bae1028eed6a881b18186200022a60201b60201c565b5050620004c0565b63ffffffff60e01b817bffffffffffffffffffffffffffffffffffffffffffffffffffffffff1916141562000296576040517f08c379a00000000000000000000000000000000000000000000000000000000081526004016200028d9062000439565b60405180910390fd5b6001600080837bffffffffffffffffffffffffffffffffffffffffffffffffffffffff19167bffffffffffffffffffffffffffffffffffffffffffffffffffffffff1916815260200190815260200160002060006101000a81548160ff02191690831515021790555050565b82805462000310906200048a565b90600052602060002090601f01602090048101928262000334576000855562000380565b82601f106200034f57805160ff191683800117855562000380565b8280016001018555821562000380579182015b828111156200037f57825182559160200191906001019062000362565b5b5090506200038f919062000393565b5090565b5b80821115620003ae57600081600090555060010162000394565b5090565b600082825260208201905092915050565b7f455243313635202d20496e76616c696420696e7465726661636520726571756560008201527f7374210000000000000000000000000000000000000000000000000000000000602082015250565b600062000421602383620003b2565b91506200042e82620003c3565b604082019050919050565b60006020820190508181036000830152620004548162000412565b9050919050565b7f4e487b7100000000000000000000000000000000000000000000000000000000600052602260045260246000fd5b60006002820490506001821680620004a357607f821691505b60208210811415620004ba57620004b96200045b565b5b50919050565b611b5d80620004d06000396000f3fe608060405234801561001057600080fd5b50600436106100a95760003560e01c80634f6ccce7116100715780634f6ccce7146101665780636352211e1461019657806370a08231146101c657806393ab6e56146101f657806395d89b4114610226578063d85d3d2714610244576100a9565b806301ffc9a7146100ae57806306fdde03146100de57806318160ddd146100fc57806323b872dd1461011a5780632f745c5914610136575b600080fd5b6100c860048036038101906100c39190611070565b610260565b6040516100d591906110b8565b60405180910390f35b6100e66102c7565b6040516100f3919061116c565b60405180910390f35b610104610359565b60405161011191906111a7565b60405180910390f35b610134600480360381019061012f919061124c565b610366565b005b610150600480360381019061014b919061129f565b610389565b60405161015d91906111a7565b60405180910390f35b610180600480360381019061017b91906112df565b610439565b60405161018d91906111a7565b60405180910390f35b6101b060048036038101906101ab91906112df565b6104aa565b6040516101bd919061131b565b60405180910390f35b6101e060048036038101906101db9190611336565b61055c565b6040516101ed91906111a7565b60405180910390f35b610210600480360381019061020b91906112df565b61061b565b60405161021d919061116c565b60405180910390f35b61022e6106c7565b60405161023b919061116c565b60405180910390f35b61025e60048036038101906102599190611498565b610759565b005b6000806000837bffffffffffffffffffffffffffffffffffffffffffffffffffffffff19167bffffffffffffffffffffffffffffffffffffffffffffffffffffffff1916815260200190815260200160002060009054906101000a900460ff169050919050565b6060600180546102d690611510565b80601f016020809104026020016040519081016040528092919081815260200182805461030290611510565b801561034f5780601f106103245761010080835404028352916020019161034f565b820191906000526020600020905b81548152906001019060200180831161033257829003601f168201915b5050505050905090565b6000600680549050905090565b610370338261085c565b61037957600080fd5b6103848383836108eb565b505050565b60006103948361055c565b82106103d5576040517f08c379a00000000000000000000000000000000000000000000000000000000081526004016103cc9061158e565b60405180910390fd5b600860008473ffffffffffffffffffffffffffffffffffffffff1673ffffffffffffffffffffffffffffffffffffffff1681526020019081526020016000208281548110610426576104256115ae565b5b9060005260206000200154905092915050565b6000610443610359565b8210610484576040517f08c379a000000000000000000000000000000000000000000000000000000000815260040161047b90611629565b60405180910390fd5b60068281548110610498576104976115ae565b5b90600052602060002001549050919050565b6000806003600084815260200190815260200160002060009054906101000a900473ffffffffffffffffffffffffffffffffffffffff169050600073ffffffffffffffffffffffffffffffffffffffff168173ffffffffffffffffffffffffffffffffffffffff161415610553576040517f08c379a000000000000000000000000000000000000000000000000000000000815260040161054a90611695565b60405180910390fd5b80915050919050565b60008073ffffffffffffffffffffffffffffffffffffffff168273ffffffffffffffffffffffffffffffffffffffff1614156105cd576040517f08c379a00000000000000000000000000000000000000000000000000000000081526004016105c490611701565b60405180910390fd5b610614600460008473ffffffffffffffffffffffffffffffffffffffff1673ffffffffffffffffffffffffffffffffffffffff168152602001908152602001600020610b11565b9050919050565b600a818154811061062b57600080fd5b90600052602060002001600091509050805461064690611510565b80601f016020809104026020016040519081016040528092919081815260200182805461067290611510565b80156106bf5780601f10610694576101008083540402835291602001916106bf565b820191906000526020600020905b8154815290600101906020018083116106a257829003601f168201915b505050505081565b6060600280546106d690611510565b80601f016020809104026020016040519081016040528092919081815260200182805461070290611510565b801561074f5780601f106107245761010080835404028352916020019161074f565b820191906000526020600020905b81548152906001019060200180831161073257829003601f168201915b5050505050905090565b600b81604051610769919061175d565b908152602001604051809103902060009054906101000a900460ff16156107c5576040517f08c379a00000000000000000000000000000000000000000000000000000000081526004016107bc906117e6565b60405180910390fd5b600a81908060018154018082558091505060019003906000526020600020016000909190919091509080519060200190610800929190610f61565b5060006001600a805490506108159190611835565b90506108213382610b1f565b6001600b83604051610833919061175d565b908152602001604051809103902060006101000a81548160ff0219169083151502179055505050565b600061086782610b40565b6108a6576040517f08c379a000000000000000000000000000000000000000000000000000000000815260040161089d906118b5565b60405180910390fd5b60006108b1836104aa565b90508073ffffffffffffffffffffffffffffffffffffffff168473ffffffffffffffffffffffffffffffffffffffff161491505092915050565b600073ffffffffffffffffffffffffffffffffffffffff168273ffffffffffffffffffffffffffffffffffffffff16141561095b576040517f08c379a000000000000000000000000000000000000000000000000000000000815260040161095290611947565b60405180910390fd5b8273ffffffffffffffffffffffffffffffffffffffff1661097b826104aa565b73ffffffffffffffffffffffffffffffffffffffff16146109d1576040517f08c379a00000000000000000000000000000000000000000000000000000000081526004016109c8906119d9565b60405180910390fd5b610a18600460008573ffffffffffffffffffffffffffffffffffffffff1673ffffffffffffffffffffffffffffffffffffffff168152602001908152602001600020610bb2565b610a5f600460008473ffffffffffffffffffffffffffffffffffffffff1673ffffffffffffffffffffffffffffffffffffffff168152602001908152602001600020610bd5565b816003600083815260200190815260200160002060006101000a81548173ffffffffffffffffffffffffffffffffffffffff021916908373ffffffffffffffffffffffffffffffffffffffff160217905550808273ffffffffffffffffffffffffffffffffffffffff168473ffffffffffffffffffffffffffffffffffffffff167fddf252ad1be2c89b69c2b068fc378daa952ba7f163c4a11628f55a4df523b3ef60405160405180910390a4505050565b600081600001549050919050565b610b298282610bf4565b610b3281610da6565b610b3c8282610def565b5050565b6000806003600084815260200190815260200160002060009054906101000a900473ffffffffffffffffffffffffffffffffffffffff169050600073ffffffffffffffffffffffffffffffffffffffff168173ffffffffffffffffffffffffffffffffffffffff161415915050919050565b610bca60018260000154610eb390919063ffffffff16565b816000018190555050565b6001816000016000828254610bea91906119f9565b9250508190555050565b600073ffffffffffffffffffffffffffffffffffffffff168273ffffffffffffffffffffffffffffffffffffffff161415610c64576040517f08c379a0000000000000000000000000000000000000000000000000000000008152600401610c5b90611a9b565b60405180910390fd5b610c6d81610b40565b15610cad576040517f08c379a0000000000000000000000000000000000000000000000000000000008152600401610ca490611b07565b60405180910390fd5b816003600083815260200190815260200160002060006101000a81548173ffffffffffffffffffffffffffffffffffffffff021916908373ffffffffffffffffffffffffffffffffffffffff160217905550610d46600460008473ffffffffffffffffffffffffffffffffffffffff1673ffffffffffffffffffffffffffffffffffffffff168152602001908152602001600020610bd5565b808273ffffffffffffffffffffffffffffffffffffffff16600073ffffffffffffffffffffffffffffffffffffffff167fddf252ad1be2c89b69c2b068fc378daa952ba7f163c4a11628f55a4df523b3ef60405160405180910390a45050565b6006805490506007600083815260200190815260200160002081905550600681908060018154018082558091505060019003906000526020600020016000909190919091505550565b600860008373ffffffffffffffffffffffffffffffffffffffff1673ffffffffffffffffffffffffffffffffffffffff168152602001908152602001600020819080600181540180825580915050600190039060005260206000200160009091909190915055600860008373ffffffffffffffffffffffffffffffffffffffff1673ffffffffffffffffffffffffffffffffffffffff1681526020019081526020016000208054905060096000838152602001908152602001600020819055505050565b6000610ef583836040518060400160405280601e81526020017f536166654d6174683a207375627472616374696f6e206f766572666c6f770000815250610efd565b905092915050565b6000838311158290610f45576040517f08c379a0000000000000000000000000000000000000000000000000000000008152600401610f3c919061116c565b60405180910390fd5b5060008385610f549190611835565b9050809150509392505050565b828054610f6d90611510565b90600052602060002090601f016020900481019282610f8f5760008555610fd6565b82601f10610fa857805160ff1916838001178555610fd6565b82800160010185558215610fd6579182015b82811115610fd5578251825591602001919060010190610fba565b5b509050610fe39190610fe7565b5090565b5b80821115611000576000816000905550600101610fe8565b5090565b6000604051905090565b600080fd5b600080fd5b60007fffffffff0000000000000000000000000000000000000000000000000000000082169050919050565b61104d81611018565b811461105857600080fd5b50565b60008135905061106a81611044565b92915050565b6000602082840312156110865761108561100e565b5b60006110948482850161105b565b91505092915050565b60008115159050919050565b6110b28161109d565b82525050565b60006020820190506110cd60008301846110a9565b92915050565b600081519050919050565b600082825260208201905092915050565b60005b8381101561110d5780820151818401526020810190506110f2565b8381111561111c576000848401525b50505050565b6000601f19601f8301169050919050565b600061113e826110d3565b61114881856110de565b93506111588185602086016110ef565b61116181611122565b840191505092915050565b600060208201905081810360008301526111868184611133565b905092915050565b6000819050919050565b6111a18161118e565b82525050565b60006020820190506111bc6000830184611198565b92915050565b600073ffffffffffffffffffffffffffffffffffffffff82169050919050565b60006111ed826111c2565b9050919050565b6111fd816111e2565b811461120857600080fd5b50565b60008135905061121a816111f4565b92915050565b6112298161118e565b811461123457600080fd5b50565b60008135905061124681611220565b92915050565b6000806000606084860312156112655761126461100e565b5b60006112738682870161120b565b93505060206112848682870161120b565b925050604061129586828701611237565b9150509250925092565b600080604083850312156112b6576112b561100e565b5b60006112c48582860161120b565b92505060206112d585828601611237565b9150509250929050565b6000602082840312156112f5576112f461100e565b5b600061130384828501611237565b91505092915050565b611315816111e2565b82525050565b6000602082019050611330600083018461130c565b92915050565b60006020828403121561134c5761134b61100e565b5b600061135a8482850161120b565b91505092915050565b600080fd5b600080fd5b7f4e487b7100000000000000000000000000000000000000000000000000000000600052604160045260246000fd5b6113a582611122565b810181811067ffffffffffffffff821117156113c4576113c361136d565b5b80604052505050565b60006113d7611004565b90506113e3828261139c565b919050565b600067ffffffffffffffff8211156114035761140261136d565b5b61140c82611122565b9050602081019050919050565b82818337600083830152505050565b600061143b611436846113e8565b6113cd565b90508281526020810184848401111561145757611456611368565b5b611462848285611419565b509392505050565b600082601f83011261147f5761147e611363565b5b813561148f848260208601611428565b91505092915050565b6000602082840312156114ae576114ad61100e565b5b600082013567ffffffffffffffff8111156114cc576114cb611013565b5b6114d88482850161146a565b91505092915050565b7f4e487b7100000000000000000000000000000000000000000000000000000000600052602260045260246000fd5b6000600282049050600182168061152857607f821691505b6020821081141561153c5761153b6114e1565b5b50919050565b7f4f776e657220696e646578206973206f7574206f6620626f756e647321000000600082015250565b6000611578601d836110de565b915061158382611542565b602082019050919050565b600060208201905081810360008301526115a78161156b565b9050919050565b7f4e487b7100000000000000000000000000000000000000000000000000000000600052603260045260246000fd5b7f476c6f62616c20696e646578206973206f7574206f6620626f756e6473210000600082015250565b6000611613601e836110de565b915061161e826115dd565b602082019050919050565b6000602082019050818103600083015261164281611606565b9050919050565b7f4572726f72202d205468697320746f6b656e20697320696e76616c6964000000600082015250565b600061167f601d836110de565b915061168a82611649565b602082019050919050565b600060208201905081810360008301526116ae81611672565b9050919050565b7f4572726f72202d20496e76616c69642061646472657373210000000000000000600082015250565b60006116eb6018836110de565b91506116f6826116b5565b602082019050919050565b6000602082019050818103600083015261171a816116de565b9050919050565b600081905092915050565b6000611737826110d3565b6117418185611721565b93506117518185602086016110ef565b80840191505092915050565b6000611769828461172c565b915081905092915050565b7f4572726f72202d204b727970746f4269726420616c726561647920657869737460008201527f7321000000000000000000000000000000000000000000000000000000000000602082015250565b60006117d06022836110de565b91506117db82611774565b604082019050919050565b600060208201905081810360008301526117ff816117c3565b9050919050565b7f4e487b7100000000000000000000000000000000000000000000000000000000600052601160045260246000fd5b60006118408261118e565b915061184b8361118e565b92508282101561185e5761185d611806565b5b828203905092915050565b7f546f6b656e20646f6573206e6f74206578697374210000000000000000000000600082015250565b600061189f6015836110de565b91506118aa82611869565b602082019050919050565b600060208201905081810360008301526118ce81611892565b9050919050565b7f4572726f72202d20455243373231207472616e7366657220746f20746865207a60008201527f65726f2061646472657373000000000000000000000000000000000000000000602082015250565b6000611931602b836110de565b915061193c826118d5565b604082019050919050565b6000602082019050818103600083015261196081611924565b9050919050565b7f4572726f72202d20417474656d707420746f207472616e73666572206120746f60008201527f6b656e20746865206164647265737320646f6573206e6f74206f776e21000000602082015250565b60006119c3603d836110de565b91506119ce82611967565b604082019050919050565b600060208201905081810360008301526119f2816119b6565b9050919050565b6000611a048261118e565b9150611a0f8361118e565b9250827fffffffffffffffffffffffffffffffffffffffffffffffffffffffffffffffff03821115611a4457611a43611806565b5b828201905092915050565b7f4d696e742061646472657373206973206e6f7420616e20616464726573732100600082015250565b6000611a85601f836110de565b9150611a9082611a4f565b602082019050919050565b60006020820190508181036000830152611ab481611a78565b9050919050565b7f4552433732313a20746f6b656e20616c7265616479206d696e74656400000000600082015250565b6000611af1601c836110de565b9150611afc82611abb565b602082019050919050565b60006020820190508181036000830152611b2081611ae4565b905091905056fea26469706673582212207214b257ae523a1a5cbff998b893bf1b1cce398f146b859481a6d47ef64e0d3e64736f6c63430008090033",
  "immutableReferences": {},
  "source": "//SPDX-License-Identifier: MIT\npragma solidity ^0.8.0;\n\nimport './ERC721Connector.sol';\n\ncontract KryptoBird is ERC721Connector {\n\n    // array to store our nfts\n    string[] public kryptoBirdz;\n\n    mapping(string => bool) _kryptoBirdzExists;\n\n    //Initialises this contract to inherit name and symbol from ERC721Metadata'\n    //so that the name is KryptoBird and symbol is KBIRDZ\n    constructor() ERC721Connector('KryptoBird', 'KBIRDZ') {\n\n    }\n\n    function mint(string memory _kryptoBird) public {\n        require(!_kryptoBirdzExists[_kryptoBird], 'Error - KryptoBird already exists!');\n        // this is deprecated uint _id = KryptoBirdz.push(_kryptoBird);\n        // .push no longer returns the length but a ref to the added element\n        kryptoBirdz.push(_kryptoBird);\n        uint _id = kryptoBirdz.length - 1;\n        _mint(msg.sender, _id);\n        _kryptoBirdzExists[_kryptoBird] = true;\n    }\n\n}",
  "sourcePath": "/Users/joshua.stewart/Desktop/js.code/nft-marketplace-starter-kit/src/contracts/KryptoBirdz.sol",
  "compiler": {
    "name": "solc",
    "version": "0.8.9+commit.e5eed63a.Emscripten.clang"
  },
  "schemaVersion": "3.4.3",
  "updatedAt": "2021-10-31T23:24:39.151Z",
  "networkType": "ethereum",
  "devdoc": {
    "kind": "dev",
    "methods": {
      "balanceOf(address)": {
        "details": "NFTs assigned to the zero address are considered invalid, and this  function throws for queries about the zero address.",
        "params": {
          "_owner": "An address for whom to query the balance"
        },
        "returns": {
          "_0": "The number of NFTs owned by `_owner`, possibly zero"
        }
      },
      "ownerOf(uint256)": {
        "details": "NFTs assigned to zero address are considered invalid, and queries  about them do throw.",
        "params": {
          "_tokenId": "The identifier for an NFT"
        },
        "returns": {
          "_0": "The address of the owner of the NFT"
        }
      },
      "supportsInterface(bytes4)": {
        "details": "Interface identification is specified in ERC-165. This function  uses less than 30,000 gas.",
        "params": {
          "interfaceID": "The interface identifier, as specified in ERC-165"
        },
        "returns": {
          "_0": "`true` if the contract implements `interfaceID` and  `interfaceID` is not 0xffffffff, `false` otherwise"
        }
      }
    },
    "version": 1
  },
  "userdoc": {
    "kind": "user",
    "methods": {
      "balanceOf(address)": {
        "notice": "Count all NFTs assigned to an owner"
      },
      "ownerOf(uint256)": {
        "notice": "Find the owner of an NFT"
      },
      "supportsInterface(bytes4)": {
        "notice": "Query if a contract implements an interface"
      }
    },
    "version": 1
  }
}